:100000000C9434000C9451000C9451000C94510049
:100010000C9451000C9451000C9451000C9451001C
:100020000C9451000C9451000C9451000C9451000C
:100030000C9451000C9451000C9451000C945100FC
:100040000C9451000C94C3010C9451000C94510079
:100050000C9451000C9451000C9451000C945100DC
:100060000C9451000C94510011241FBECFEFD4E02A
:10007000DEBFCDBF11E0A0E0B1E0EEEBF5E002C0E5
:1000800005900D92A034B107D9F712E0A0E4B1E0D9
:1000900001C01D92A934B107E1F70E949D020C94A2
:1000A000DE020C9400000F931F93CF93DF93A8EC14
:1000B000B1E068E072E006E411E0E5ECF1E0808197
:1000C0003197282F3327A90195E0569547959A95A2
:1000D000E1F7E80149938E012C7130703595279531
:1000E00035952795EB012993BE0183708D9382E0AE
:1000F000A830B80721F710924802DF91CF911F91E5
:100100000F910895CF93DF93CDB7DEB721970FB648
:10011000F894DEBF0FBECDBF898342982981220F9C
:10012000220F220F0DC0409890914101EA5BFE4FD3
:100130008081981710F4419A01C04198409A2F5F2E
:10014000E22FFF278981992753E0880F991F5A953D
:10015000E1F70896E817F90734F32981220F220FF7
:10016000220F0DC0409890914101E853FE4F8081CD
:10017000981710F4419A01C04198409A2F5FE22FDE
:10018000FF278981992743E0880F991F4A95E1F756
:100190000896E817F90734F32981220F220F220F5E
:1001A0000DC0409890914101E85FFD4F8081981704
:1001B00010F4419A01C04198409A2F5FE22FFF2727
:1001C0008981992733E0880F991F3A95E1F70896BE
:1001D000E817F90734F3449A429A298181E090E0C4
:1001E00002C0880F991F2A95E2F78BB9449821968F
:1001F0000FB6F894DEBF0FBECDBFDF91CF9108954B
:10020000CF93DF93C0E0D0E08C2F0E948200219634
:10021000C830D105C9F7DF91CF910895CF93DF930F
:10022000F89487E0E8ECF1E0C8E0D2E0A6E4B1E0C1
:100230008D931992119292E0E830F907C9F7C0E066
:10024000D0E00E940001219683E0C83ED807C9F79C
:1002500087E0E8ECF1E0C8E0D2E0A6E4B1E01D926E
:100260008993119292E0E830F907C9F7C0E0D0E035
:100270000E940001219683E0C83ED807C9F787E0B5
:10028000E8ECF1E0C8E0D2E0A6E4B1E01D921992FA
:10029000819392E0E830F907C9F7C0E0D0E00E940E
:1002A0000001219683E0C83ED807C9F720E031E07D
:1002B00097E0A8ECB1E0E8E0F2E046E451E0E901C3
:1002C0008881813021F4EA01988310820BC0EA0111
:1002D0001882823011F4908305C01082833011F4AB
:1002E0009C9301C01C924F5F5F4F319611962F5F18
:1002F0003F4F82E0A830B80711F7C0E0D0E00E947D
:10030000000121969BE0C83BD907C9F7E8ECF1E072
:10031000C8E0D2E0A6E4B1E01D921992119282E009
:10032000E830F807C9F778941BB8DF91CF910895AA
:1003300091E095BB982F919596BDA89BFECF81E04B
:1003400085BB96BDA89BFECF0895CF93DF93EC01AC
:100350000DC08AEF0E9498018AEF0E9498018AEFEF
:100360000E9498018AEF0E9498012197209789F7AF
:10037000DF91CF910895F999FECF92BD81BD60BD07
:10038000FA9AF99A08951F920F920FB60F921124BC
:100390002F933F934F935F936F937F938F939F938D
:1003A000AF93BF93EF93FF93F8948EB5809345017D
:1003B000809144018823C1F5809145018532A1F1E6
:1003C000E0914001FF2780914501EA57FE4F80836D
:1003D000809140018F5F8F7380934001E0914001D5
:1003E000FF27EA57FE4F80818EBD8091C601909114
:1003F000C70101969093C7018093C6012091C60161
:100400003091C70180914201992766E0880F991FBA
:100410006A95E1F72817390739F481E0809348029B
:100420001092C7011092C601809144018823A1F067
:1004300080914501882371F080914501893050F405
:1004400080914501809342016091420181E090E0FA
:100450000E94BB011092440180914501853219F43C
:1004600081E0809344017894FF91EF91BF91AF9127
:100470009F918F917F916F915F914F913F912F91BC
:100480000F900FBE0F901F901895F999FECF92BD57
:1004900081BDF89A80B5992708951F9380E184B9AA
:1004A0008CE285B98FE187B98FEF8AB9409A439A78
:1004B000419A429A449A80EC8CBD80E090E00E9480
:1004C000450280934301809143018F3F91F411E0F5
:1004D000109343016091430180E090E00E94BB01D2
:1004E000109342016091420181E090E00E94BB01C3
:1004F00022C080E090E00E944502809343018091F9
:1005000043018A3058F4809143018F5F8093430107
:100510006091430180E090E00E94BB0181E090E0A7
:100520000E9445028093420180914201893018F077
:1005300081E0809342011F9108950E944D028091B5
:1005400043018A3010F40E940E01E0914201FF271E
:10055000EB5BFE4F8FE08083E0914201FF27EA5B77
:10056000FE4F8083E0914201FF27E75FFD4F8083CC
:10057000E0914201FF27E65FFD4F8083E091420159
:10058000FF27E553FE4F8083E0914201FF27E453AC
:10059000FE4F808378941A9B02C0109240010E9403
:1005A000000180914802813011F40E945300809133
:0E05B00041018F5F877080934101EDCFFFCF37
:1005BE00030303030303030303000100000100030D
:1005CE000300000000000003030000000000000311
:1005DE0003000000000000030302000000000203FD
:1005EE0003000202020200030303030303030303D7
:00000001FF
